:020000040800F2
:100000000080002035280008351700083B1700083D
:1000100041170008471700084D17000800000000AE
:10002000000000000000000000000000531700085E
:1000300061170008000000006F1700087D17000816
:1000400085280008852800088528000885280008DC
:1000500085280008852800088528000885280008CC
:1000600085280008852800088528000889170008C9
:1000700085280008852800088528000885280008AC
:100080008528000800000000852800088528000851
:10009000852800089D170008852800088528000885
:1000A000852800088528000885280008852800087C
:1000B000852800088528000885280008852800086C
:1000C000852800088528000885280008852800085C
:1000D000852800088528000885280008852800084C
:1000E000852800088528000885280008852800083C
:1000F0007114000885280008852800080000000009
:100100000000000085280008000000008528000885
:1001100085280008000000008528000885280008C0
:1001200085280008852800088528000885280008FB
:100130008528000800000000000000008528000855
:100140008528000885280008000000000000000045
:10015000000000000000000000000000000000009F
:1001600000000000000000000000000085280008DA
:1001700085280008000000000000000000000000CA
:1001800000000000852800080000000000000000BA
:10019000000000000000000000000000000000005F
:1001A00000000000000000008528000885280008E5
:1001B0008528000885280008852800080000000020
:1001C000000000008528000800000000000000007A
:0801D0008528000885280008BD
:1001D80010B5054C237833B9044B13B10448AFF379
:1001E80000800123237010BD0C00002000000000D7
:1001F800386A000808B5034B1BB103490348AFF33D
:10020800008008BD0000000010000020386A0008C7
:1002180080B483B000AF78600E4BD3F888207B6839
:100228001B0C03F01F03032101FA03F3DB431A40FD
:100238007B68D9B27B681B0C03F01F0301FA03F338
:1002480004491343C1F8883000BF0C37BD465DF838
:10025800047B70470010024080B58CB000AF07F1F6
:10026800240300221A605A609A603B1D2022002154
:10027800184606F0D5FB5E4B4FF0A0421A605C4B67
:100288004FF440325A605A4B00229A60584B002271
:10029800DA60574B00221A61554B01225A61544BC0
:1002A80004229A61524B00221A77514B00225A7746
:1002B8004F4B07221A624E4B002283F824204C4BE6
:1002C8004FF4A462DA624A4B4FF400621A63484B57
:1002D800012283F83820464B0022DA63444B00227F
:1002E80083F84020424802F081FD0346002B01D0EC
:1002F80001F0EEF900237B6207F1240319463C481C
:1003080003F0DCFC0346002B01D001F0E1F9394B86
:100318007B600623BB600123FB607F233B610423D2
:100328007B610023BB613B1D1946314802F0BAFFCF
:100338000346002B01D001F0CBF92F4B7B600C2337
:10034800BB603B1D19462A4802F0ACFF0346002B50
:1003580001D001F0BDF9294B7B601223BB603B1D26
:100368001946234802F09EFF0346002B01D001F0F6
:10037800AFF9234B7B601823BB603B1D19461C4813
:1003880002F090FF0346002B01D001F0A1F91D4BAC
:100398007B604FF48073BB603B1D1946144802F024
:1003A80081FF0346002B01D001F092F9164B7B60C8
:1003B8004FF48373BB603B1D19460D4802F072FF72
:1003C8000346002B01D001F083F9104B7B604FF4FA
:1003D8008673BB603B1D1946054802F063FF034660
:1003E800002B01D001F074F900BF3037BD4680BD45
:1003F8002800002002003004040060081000C0102B
:100408000008302E001060320080F03E0800900C8A
:1004180080B588B000AF3B4620220021184606F080
:10042800FFFA2B4B2B4A1A60294B4FF440325A6083
:10043800274B00229A60264B0022DA60244B0022C8
:100448001A61234B00225A61214B04229A61204BE6
:1004580000221A771E4B00225A771D4B01221A627E
:100468001B4B002283F82420194B0022DA62184B18
:1004780000221A63164B002283F83820144B0022FE
:10048800DA63134B002283F84020114802F0AEFCD7
:100498000346002B01D001F01BF90F4B3B600623EC
:1004A8007B600023BB607F23FB6004233B61002348
:1004B8007B613B461946064802F0F4FE0346002BD2
:1004C80001D001F005F900BF2037BD4680BD00BF4F
:1004D80094000020000100500800900C80B58EB0F8
:1004E80000AF786007F1240300221A605A609A600E
:1004F800DA601A617B681B68B3F1A04F75D1644854
:10050800FFF786FE634B1B680133624A1360614B39
:100518001B68012B0BD1604BDB6C5F4A43F4005323
:10052800D3645D4BDB6C03F400533B623B6A5A4B6C
:10053800DB6C594A43F00103D364574BDB6C03F07F
:100548000103FB61FB69544BDB6C534A43F0020324
:10055800D364514BDB6C03F00203BB61BB690F230F
:100568007B620323BB620023FB6207F12403194665
:100578004FF0904004F026FB41F203037B62032313
:10058800BB620023FB6207F124031946434804F0C9
:1005980019FB434B434A1A60414B05225A60404BB2
:1005A80000229A603E4B0022DA603D4B80221A619D
:1005B8003B4B4FF400725A61394B4FF400629A6119
:1005C800374B2022DA61364B00221A62344803F096
:1005D80029FD0346002B01D001F07AF87B68304AE8
:1005E8005A652F4A7B6893624DE07B681B682E4AE8
:1005F800934248D12648FFF70BFE264B1B68013370
:10060800244A1360234B1B68012B0BD1224BDB6C54
:10061800214A43F40053D3641F4BDB6C03F40053AB
:100628007B617B691C4BDB6C1B4A43F00103D36481
:10063800194BDB6C03F001033B613B69164BDB6C28
:10064800154A43F00203D364134BDB6C03F0020337
:10065800FB60FB68C0237B620323BB620023FB6251
:1006680007F1240319464FF0904004F0ABFA042335
:100678007B620323BB620023FB6207F12403194654
:10068800064804F09FFA00BF3837BD4680BD00BF5A
:1006980002001C0060010020001002400004004815
:1006A80000010020080002400001005080B483B01F
:1006B80000AF7860064B1A687B68DB430449134037
:1006C8000B6000BF0C37BD465DF8047B704700BF68
:1006D8000004014080B483B000AF7860064B5A68CC
:1006E8007B68DB43044913404B6000BF0C37BD46B1
:1006F8005DF8047B704700BF0004014080B485B0FA
:1007080000AF7860084BDA6C07497B681343CB6409
:10071800054BDA6C7B681340FB60FB6800BF14373D
:10072800BD465DF8047B70470010024080B58CB070
:1007380000AF07F11C0300221A605A609A60DA6061
:100748001A613B1D00221A605A609A60DA601A61C9
:100758005A610120FFF7D2FF02237B600323BB60AD
:1007680000237B613B1D19464FF0904005F058F877
:100778000023FB6140233B6200237B620023BB62B2
:100788000023FB6207F11C031946114804F0E2FB41
:1007980000233B600F4B1B680F4AA2FB0323DB0CB3
:1007A800C82202FB03F33B6002E03B68013B3B606D
:1007B8003B68002BF9D14FF40010FFF78BFF4FF483
:1007C8000010FFF773FF00BF3037BD4680BD00BF84
:1007D800000201400000002083DE1B4380B58CB07E
:1007E80000AF07F11C0300221A605A609A60DA60B1
:1007F8001A613B1D00221A605A609A60DA601A6119
:100808005A610120FFF77AFF08237B600323BB604E
:1008180000237B613B1D19464FF0904005F000F81E
:100828004FF48073FB6140233B6200237B6200230B
:10083800BB620023FB6207F11C031946104804F051
:1008480089FB00233B600F4B1B680F4AA2FB032365
:10085800DB0CC82202FB03F33B6002E03B68013B70
:100868003B603B68002BF9D14FF48000FFF732FF63
:100878004FF48000FFF71AFF00BF3037BD4680BD38
:10088800040201400000002083DE1B4380B58CB0C9
:1008980000AF07F11C0300221A605A609A60DA6000
:1008A8001A613B1D00221A605A609A60DA601A6168
:1008B8005A610120FFF722FF01237B600323BB60FD
:1008C80000237B613B1D19464FF0904004F0A8FFC0
:1008D8000023FB6140233B6200237B620023BB6251
:1008E8000023FB6207F11C031946114804F032FB90
:1008F80000233B600F4B1B680F4AA2FB0323DB0C52
:10090800C82202FB03F33B6002E03B68013B3B600B
:100918003B68002BF9D14FF00050FFF7DBFE4FF09A
:100928000050FFF7C3FE00BF3037BD4680BD00BF93
:10093800080201400000002083DE1B4380B485B01C
:1009480000AFF860B9607A60FB68DA6BBB6803F0E7
:1009580010034FF4007101FA03F3DB431A40BB683C
:1009680003F01003796801FA03F31A43FB68DA63AA
:1009780000BF1437BD465DF8047B704780B483B070
:1009880000AF786039607B68DA6B3B6803F010036E
:100998004FF4807101FA03F3DB431A407B68DA6392
:1009A80000BF0C37BD465DF8047B704780B483B048
:1009B80000AF786039607B681A683B6803F0100301
:1009C800022101FA03F3DB431A407B681A6000BF77
:1009D8000C37BD465DF8047B7047000080B485B0D5
:1009E80000AF7860084BDA6C07497B681343CB6427
:1009F800054BDA6C7B681340FB60FB6800BF14375B
:100A0800BD465DF8047B70470010024080B58EB08B
:100A180000AF07F11C0300221A605A609A60DA607E
:100A28001A615A619A613B1D00221A605A609A60E5
:100A3800DA601A615A614FF48030FFF7CFFF012066
:100A4800FFF7CCFF10237B600323BB6000237B618F
:100A58003B1D19464FF0904004F0E2FE20237B60D6
:100A68000323BB6000237B613B1D19464FF0904078
:100A780004F0D6FE00221B491B48FFF75FFF002346
:100A8800FB6100233B6200237B620023FB6201239E
:100A98003B6300237B6307F11C031A461149124884
:100AA80004F0A3FA0F491048FFF780FF0D490E48DC
:100AB800FFF764FF00220D490B48FFF73FFF07F1DE
:100AC8001C031A460949084804F08FFA07490648E2
:100AD800FFF76CFF05490448FFF750FF00BF3837A0
:100AE800BD4680BD0100110200080050F2004235E9
:100AF80080B588B000AF3B1D00221A605A609A602A
:100B0800DA601A615A619A614FF48020FFF766FF34
:100B180000221A491A48FFF711FF00237B600023BF
:100B2800BB600023FB6002237B610123BB610023C0
:100B3800FB613B1D1A461149114804F056FA0F494A
:100B48000F48FFF733FF0D490D48FFF717FF002245
:100B58000C490B48FFF7F2FE3B1D1A4609490848A5
:100B680004F043FA07490648FFF720FF05490448FF
:100B7800FFF704FF00BF2037BD4680BD010011020A
:100B880000100050F200423580B582B000AF124B21
:100B98009B6C114A43F0040393640F4B9B6C03F066
:100BA80004037B607B680C4B9B6C0B4A43F001038E
:100BB8009364094B9B6C03F001033B603B68002284
:100BC80000210B2003F0F9F90B2003F010FA00BF05
:100BD8000837BD4680BD00BF0010024080B483B016
:100BE80000AF7860074BD3F8883023F0407205498E
:100BF8007B681343C1F8883000BF0C37BD465DF8E9
:100C0800047B70470010024080B500AF1F4B204A9C
:100C18001A601E4B00225A601C4B00229A601B4B24
:100C28000022DA60194B01221A74184B01225A74F7
:100C3800164B00229A74154B14225A61134B012249
:100C48009A61124B0C22DA61104B02221A620F4B86
:100C580001225A620D4B01229A620C4B0122DA6280
:100C68000A4B01221A63094B01225A63074B0022DF
:100C78009A63064B0022DA63044803F045FC0346F6
:100C8800002B01D000F024FD00BF80BD64010020CE
:100C98000064004080B58AB000AF786007F11403A3
:100CA80000221A605A609A60DA601A617B681B68D1
:100CB8001E4A934235D14FF00070FFF78FFF1C4B4F
:100CC8009B6D1B4A43F000739365194B9B6D03F0B2
:100CD80000733B613B69164BDB6C154A43F001031B
:100CE800D364134BDB6C03F00103FB60FB684FF428
:100CF800C0537B610223BB610023FB6100233B627D
:100D080009237B6207F1140319464FF0904003F062
:100D180059FF00220021152003F04FF9152003F098
:100D280066F900BF2837BD4680BD00BF006400409B
:100D38000010024080B400AF044BDB681B0A03F0CC
:100D480007031846BD465DF8047B704700ED00E0D8
:100D580080B483B000AF0346FB7197F90730002BCE
:100D68000BDBFB7903F01F02074997F907305B0992
:100D7800012000FA02F241F8232000BF0C37BD46DB
:100D88005DF8047B704700BF00E100E080B483B0E9
:100D980000AF03463960FB7197F90730002B0ADB77
:100DA8003B68DAB20C4997F907301201D2B20B440A
:100DB80083F800230AE03B68DAB20849FB7903F0BC
:100DC8000F03043B1201D2B20B441A7600BF0C3752
:100DD800BD465DF8047B704700E100E000ED00E0EF
:100DE80080B489B000AFF860B9607A60FB6803F03E
:100DF8000703FB61FB69C3F10703042B28BF042326
:100E0800BB61FB690433062B02D9FB69033B00E095
:100E180000237B614FF0FF32BB6902FA03F3DA4328
:100E2800BB681A407B699A404FF0FF317B6901FA31
:100E380003F3D9437B680B40134318462437BD4658
:100E48005DF8047B7047000080B485B000AF78601F
:100E5800084BDA6C07497B681343CB64054BDA6CA3
:100E68007B681340FB60FB6800BF1437BD465DF824
:100E7800047B70470010024080B487B000AF7860F0
:100E88003960184A3B6803F00303023352F8232001
:100E98003B681B0CDB4302EA03013B681B0C3B610C
:100EA8003B6993FAA3F3FB60FB687B617B69002BCA
:100EB80001D1202303E07B69B3FA83F3DBB203F0AB
:100EC8001F037A689A4007483B6803F003030A4304
:100ED800023340F8232000BF1C37BD465DF8047B71
:100EE800704700BF0000014080B48BB000AFF860CD
:100EF800B9607A60FB681A68BB687B617B6993FAA2
:100F0800A3F33B613B69BB61BB69002B01D1202383
:100F180003E0BB69B3FA83F3DBB25B00032101FA98
:100F280003F3DB431A40BB683B623B6A93FAA3F3C3
:100F3800FB61FB697B627B6A002B01D1202303E004
:100F48007B6AB3FA83F3DBB25B00796801FA03F3D7
:100F58001A43FB681A6000BF2C37BD465DF8047B56
:100F6800704780B48BB000AFF860B9607A60FB68F6
:100F7800DA68BB687B617B6993FAA3F33B613B69E1
:100F8800BB61BB69002B01D1202303E0BB69B3FA25
:100F980083F3DBB25B00032101FA03F3DB431A405E
:100FA800BB683B623B6A93FAA3F3FB61FB697B6214
:100FB8007B6A002B01D1202303E07B6AB3FA83F319
:100FC800DBB25B00796801FA03F31A43FB68DA6065
:100FD80000BF2C37BD465DF8047B704780B483B0F2
:100FE80000AF786039607B683A689A6200BF0C3756
:100FF800BD465DF8047B704780B58AB000AF07F145
:101008001C0300221A605A609A603B1D00221A6075
:101018005A609A60DA601A615A610420FFF714FF77
:101028002020FFF711FF0120FFF70EFF0220FFF736
:101038000BFF4FF400414FF09040FFF7CFFF08211E
:101048004448FFF7CBFF10214248FFF7C7FF202194
:101058004048FFF7C3FF40490220FFF70DFF4FF458
:101068000053FB61012387F82430002387F82530DB
:10107800032387F8263007F11C03184604F08CF97F
:1010880000224FF400513548FFF76BFF00224FF460
:1010980000513248FFF728FF01237B600323BB6020
:1010A80000237B613B1D19462A4804F0B9FB4FF425
:1010B80000437B600123BB600323FB6000233B618B
:1010C80000237B613B1D19464FF0904004F0A8FBBC
:1010D80008237B600123BB600323FB6000233B6183
:1010E80000237B613B1D19461A4804F099FB102325
:1010F8007B600123BB600323FB6000233B6100236B
:101108007B613B1D1946134804F08AFB20237B6052
:101118000123BB600023FB6000233B6100237B614C
:101128003B1D19460B4804F07BFBFFF703FE034603
:10113800002200211846FFF753FE034619462820CF
:10114800FFF724FE2820FFF703FE00BF2837BD461F
:1011580080BD00BF000400480300F00000080048FC
:1011680080B400AF054B1B68044A43F48033136016
:1011780000BFBD465DF8047B704700BF0010024009
:1011880080B400AF074B1B6803F40033B3F5003F8E
:1011980001D1012300E000231846BD465DF8047B19
:1011A800704700BF0010024080B483B000AF786081
:1011B800064B9B6823F0030204497B6813438B604A
:1011C80000BF0C37BD465DF8047B70470010024035
:1011D80080B400AF044B9B6803F00C031846BD466F
:1011E8005DF8047B704700BF0010024080B483B0F4
:1011F80000AF7860064B9B6823F0F00204497B68D7
:1012080013438B6000BF0C37BD465DF8047B704705
:101218000010024080B483B000AF7860064B9B6832
:1012280023F4E06204497B6813438B6000BF0C37EA
:10123800BD465DF8047B70470010024080B483B05F
:1012480000AF7860064B9B6823F4605204497B68C2
:1012580013438B6000BF0C37BD465DF8047B7047B5
:101268000010024080B400AF054B1B68044A43F0ED
:101278008073136000BFBD465DF8047B704700BFF4
:101288000010024080B400AF074B1B6803F00073E6
:10129800B3F1007F01D1012300E000231846BD46C9
:1012A8005DF8047B704700BF0010024080B485B031
:1012B80000AFF860B9607A603B600A4BDA680A4BA5
:1012C8001340F968BA6811437A68120211433A6800
:1012D8000A4304491343CB6000BF1437BD465DF889
:1012E800047B7047001002400C80FFF980B400AF07
:1012F800054BDB68044A43F08073D36000BFBD46EA
:101308005DF8047B704700BF0010024080B483B0D2
:1013180000AF7860064B1B6823F00F0204497B6816
:1013280013430B6000BF0C37BD465DF8047B704764
:101338000020024080B400AF044B1B6803F00F0389
:101348001846BD465DF8047B704700BF0020024088
:1013580080B483B000AF7860064B1B6823F4C0628A
:1013680004497B6813430B6000BF0C37BD465DF82A
:10137800047B70470070004080B483B000AF786091
:101388007B681B6843F001027B681A6000BF0C375A
:10139800BD465DF8047B704780B483B000AF7860C9
:1013A8007B685B6C43F400427B685A6400BF0C376F
:1013B800BD465DF8047B704780B483B000AF7860A9
:1013C8007B685B6C23F400427B685A6400BF0C376F
:1013D800BD465DF8047B704780B483B000AF786089
:1013E8007B686FF001021A6100BF0C37BD465DF8DB
:1013F800047B704780B483B000AF78607B68DB689B
:1014080043F001027B68DA6000BF0C37BD465DF827
:10141800047B704780B500AF01F031FA00F0F4F8B2
:10142800FFF7EAFDFFF7B0FBFEF7F2FFFFF77EF9E3
:10143800FFF7D4F9FFF72AFAFEF70EFFFFF7E6FAEF
:10144800FFF756FBFFF7E0FB00F08AFD00F0ECFE2B
:1014580000F02EFF00F06CFF01F02CF801F066F9A7
:1014680000F022F8FEE7000080B500AF00F028F891
:1014780044F6206000F062F84FF4C87000F076F887
:10148800074B1B6807EE903AF8EE677AB0EE670AEA
:1014980000F090F80348FFF79FFF00BF80BD00BF32
:1014A800E80100200034014080B500AF0348FFF791
:1014B800A1FF0248FFF760FF00BF80BD0034014074
:1014C80080B500AF07221749174801F019FE0346F7
:1014D800002B0CD1134BDB6807EE903AB8EE677A15
:1014E800DFED126AC7EE267A114BC3ED007A114B75
:1014F800DB6A07EE903AB8EE677A0D4BD3ED007AC7
:1015080067EE277AFCEEE77A17EE902A0A4B1A6004
:10151800094B1B6807EE903AF8EE677AB0EE670A57
:1015280080BD00BFC80100202800002000F07F45D2
:10153800E4010020002C0140E801002080B584B0BF
:1015480000AF78600023FB6003F0DAFC02467B689A
:10155800B2FBF3F35B08FB60034AFB68D36200BF8E
:101568001037BD4680BD00BF002C014080B584B057
:1015780000AF78607B685B0A0C4AA2FB0323DB0997
:10158800FB600023BB6003F0BBFC0246FB6802FB68
:1015980003F3BB60064B5B6C23F0FF020449BB6896
:1015A80013434B6400BF1037BD4680BD834B040016
:1015B800002C014080B582B000AF87ED010A1148C8
:1015C800FFF7FAFE0F4BD7ED017AFCEEE77A17EE3C
:1015D800902A5A630B4BD7ED017AFCEEE77A17EEA7
:1015E800902A9A63074BD7ED017AFCEEE77A17EE5B
:1015F800902ADA630348FFF7CFFE00BF0837BD46DD
:1016080080BD00BF002C014080B500AF0420FFF76B
:101618007DFE00BFFFF78EFE0346042BFAD14FF480
:101628000070FFF795FEFFF79BFD00BFFFF7A8FDD1
:101638000346012BFAD10023192200210320FFF7CA
:1016480035FEFFF753FEFFF70DFE00BFFFF71AFE4A
:101658000346012BFAD10320FFF7A6FD8020FFF7F0
:10166800C5FD00BFFFF7B4FD03460C2BFAD1154B9F
:10167800DB68144A43F08073D360134B1B68124A2B
:1016880043F001031360104B00225A6000BF0E4B59
:101698005B68632BFBD90020FFF7A8FD0020FFF74C
:1016A800B9FD0020FFF7CAFD084805F085F90F20AD
:1016B80001F0FEF80346002B01D000F009F800BF46
:1016C80080BD00BFF0ED00E0001000E080D1F00820
:1016D80080B400AF72B600BFFEE7000080B582B0EC
:1016E80000AF114B1B6E104A43F0010313660E4BFB
:1016F8001B6E03F001037B607B680B4B9B6D0A4AF2
:1017080043F080539365084B9B6D03F080533B6017
:101718003B6801F039F9022001F022F903F0D4FB0B
:1017280000BF0837BD4680BD0010024080B400AF3E
:10173800FEE780B400AFFEE780B400AFFEE780B4F8
:1017480000AFFEE780B400AFFEE780B400AF00BF93
:10175800BD465DF8047B704780B400AF00BFBD464E
:101768005DF8047B704780B400AF00BFBD465DF8EC
:10177800047B704780B500AF01F0D4F800BF80BD8E
:1017880080B500AF024802F070FD00BF80BD00BF09
:101798000001002080B500AF024803F00FF800BF39
:1017A80080BD00BF6401002080B400AF064BD3F8B1
:1017B8008830054A43F47003C2F8883000BFBD463C
:1017C8005DF8047B704700BF00ED00E080B400AF17
:1017D800044BDB681B0A03F007031846BD465DF897
:1017E800047B704700ED00E080B483B000AF03468F
:1017F800FB7197F90730002B0BDBFB7903F01F0215
:10180800074997F907305B09012000FA02F241F80D
:10181800232000BF0C37BD465DF8047B704700BF2E
:1018280000E100E080B483B000AF03463960FB718B
:1018380097F90730002B0ADB3B68DAB20C4997F9B5
:1018480007301201D2B20B4483F800230AE03B6848
:10185800DAB20849FB7903F00F03043B1201D2B254
:101868000B441A7600BF0C37BD465DF8047B704701
:1018780000E100E000ED00E080B489B000AFF8605E
:10188800B9607A60FB6803F00703FB61FB69C3F189
:101898000703042B28BF0423BB61FB690433062B11
:1018A80002D9FB69033B00E000237B614FF0FF3264
:1018B800BB6902FA03F3DA43BB681A407B699A40B2
:1018C8004FF0FF317B6901FA03F3D9437B680B4082
:1018D800134318462437BD465DF8047B7047000063
:1018E80080B485B000AF7860084BDA6C07497B6834
:1018F8001343CB64054BDA6C7B681340FB60FB68D1
:1019080000BF1437BD465DF8047B704700100240E5
:1019180080B485B000AF7860084B9A6D07497B6842
:1019280013438B65054B9A6D7B681340FB60FB681E
:1019380000BF1437BD465DF8047B704700100240B5
:1019480080B485B000AF7860084B1A6E07497B6891
:1019580013430B66054B1A6E7B681340FB60FB68EC
:1019680000BF1437BD465DF8047B70470010024085
:1019780080B483B000AF78607B681B6843F0800256
:101988007B681A6000BF0C37BD465DF8047B704762
:1019980080B483B000AF78607B681B6823F0800256
:1019A8007B681A6000BF0C37BD465DF8047B704742
:1019B80080B485B000AF786039603B68012B2ED0C9
:1019C8003B68042B29D03B68102B24D03B68402B64
:1019D8001FD03B68B3F5807F19D03B68B3F5806FA3
:1019E80013D03B68B3F5805F0DD03B68B3F5804FEB
:1019F80007D03B68B3F5803F01D1082310E00923E5
:101A08000EE007230CE006230AE0052308E0042380
:101A180006E0032304E0022302E0012300E00023A0
:101A2800FB737B6818331946FB7B0B4AD35C0B446A
:101A3800BB60BB681A68FB7B0849CB5C194604236A
:101A48008B40DB431A40BB681A6000BF1437BD46A1
:101A58005DF8047B704700BF686A0008746A000874
:101A680080B485B000AF786039603B68012B2ED018
:101A78003B68042B29D03B68102B24D03B68402BB3
:101A88001FD03B68B3F5807F19D03B68B3F5806FF2
:101A980013D03B68B3F5805F0DD03B68B3F5804F3A
:101AA80007D03B68B3F5803F01D1082310E0092334
:101AB8000EE007230CE006230AE0052308E00423D0
:101AC80006E0032304E0022302E0012300E00023F0
:101AD800FB737B6818331946FB7B0A4AD35C0B44BB
:101AE800BB60BB681A68FB7B0749CB5C19460823B7
:101AF8008B401A43BB681A6000BF1437BD465DF8B7
:101B0800047B7047686A0008746A000880B487B06C
:101B180000AFF860B9607A60BB68012B2ED0BB6853
:101B2800042B29D0BB68102B24D0BB68402B1FD0B6
:101B3800BB68B3F5807F19D0BB68B3F5806F13D04D
:101B4800BB68B3F5805F0DD0BB68B3F5804F07D095
:101B5800BB68B3F5803F01D1082310E009230EE0EC
:101B680007230CE006230AE0052308E0042306E027
:101B7800032304E0022302E0012300E00023FB75B5
:101B8800FB6818331946FB7D0E4AD35C0B443B6156
:101B98003B691A68FB7D0C49CB5C194603238B40D3
:101BA800DB431A407B681B0CF97D0748415C8B407E
:101BB8001A433B691A6000BF1C37BD465DF8047BB9
:101BC800704700BF686A0008806A000880B487B060
:101BD80000AFF860B9607A60BB68012B2ED0BB6893
:101BE800042B29D0BB68102B24D0BB68402B1FD0F6
:101BF800BB68B3F5807F19D0BB68B3F5806F13D08D
:101C0800BB68B3F5805F0DD0BB68B3F5804F07D0D4
:101C1800BB68B3F5803F01D1082310E009230EE02B
:101C280007230CE006230AE0052308E0042306E066
:101C3800032304E0022302E0012300E00023FB75F4
:101C4800FB6818331946FB7D0E4AD35C0B443B6195
:101C58003B691A68FB7D0C49CB5C19460C238B4009
:101C6800DB431A407B681B0CF97D0748415C8B40BD
:101C78001A433B691A6000BF1C37BD465DF8047BF8
:101C8800704700BF686A0008806A000880B487B09F
:101C980000AFF860B9607A60BB68012B2ED0BB68D2
:101CA800042B29D0BB68102B24D0BB68402B1FD035
:101CB800BB68B3F5807F19D0BB68B3F5806F13D0CC
:101CC800BB68B3F5805F0DD0BB68B3F5804F07D014
:101CD800BB68B3F5803F01D1082310E009230EE06B
:101CE80007230CE006230AE0052308E0042306E0A6
:101CF800032304E0022302E0012300E00023FB7534
:101D0800FB6818331946FB7D0E4AD35C0B443B61D4
:101D18003B691A68FB7D0C49CB5C1946F0238B4064
:101D2800DB431A407B681B0CF97D0748415C8B40FC
:101D38001A433B691A6000BF1C37BD465DF8047B37
:101D4800704700BF686A0008806A000880B487B0DE
:101D580000AFF860B9607A60BB68012B2ED0BB6811
:101D6800042B29D0BB68102B24D0BB68402B1FD074
:101D7800BB68B3F5807F19D0BB68B3F5806F13D00B
:101D8800BB68B3F5805F0DD0BB68B3F5804F07D053
:101D9800BB68B3F5803F01D1082310E009230EE0AA
:101DA80007230CE006230AE0052308E0042306E0E5
:101DB800032304E0022302E0012300E00023FB7573
:101DC800FB681A6AFB7D0B49CB5C19460A238B40DA
:101DD800DB431A40FB7D0749CB5C19467B688B4087
:101DE8001A43FB681A6200BF1C37BD465DF8047BC6
:101DF800704700BF8C6A000880B483B000AF786079
:101E080039607B689B6823F4A03323F007033A68A2
:101E18001A437B689A6000BF0C37BD465DF8047BA7
:101E2800704780B483B000AF786039607B685B68C6
:101E380023F0007323F070033A681A437B685A60F2
:101E480000BF0C37BD465DF8047B704780B483B093
:101E580000AF786039607B685B6823F470023B6888
:101E68001A437B685A6000BF0C37BD465DF8047B97
:101E7800704780B483B000AF78607B689B6843F09C
:101E880080027B689A6000BF0C37BD465DF8047B12
:101E9800704780B483B000AF78607B689B6823F09C
:101EA80080027B689A6000BF0C37BD465DF8047BF2
:101EB800704780B48DB000AFF860B9607A603B605D
:101EC800FB6860331A46BB681344FB62FB6A1A68F6
:101ED8007B68BB61BB6993FAA3F37B617B69FB6198
:101EE800FB69002B01D1202303E0FB69B3FA83F3DC
:101EF800DBB203F01F034FF4007101FA03F3DB4375
:101F08001A407B687B627B6A93FAA3F33B623B6A65
:101F1800BB62BB6A002B01D1202303E0BB6AB3FA82
:101F280083F3DBB203F01F03396801FA03F31A43A2
:101F3800FB6A1A6000BF3437BD465DF8047B704702
:101F480080B483B000AF78607B685B6D43F4003287
:101F58007B685A6500BF0C37BD465DF8047B704747
:101F680080B5A0B000AF07F16C0300221A605A6078
:101F78009A60DA601A6107F14C03202200211846A2
:101F880004F04EFD07F11C0330220021184604F02E
:101F980047FD3B1D00221A605A609A60DA601A6198
:101FA8005A614FF40060FFF7CBFCFFF70FFC0346C4
:101FB800002200211846FFF75FFC03461946182047
:101FC800FFF730FC1820FFF70FFC0023A7F86C3050
:101FD80060233B6740F6A5637B670023BB6700234C
:101FE800FB6707F16C0319468D4803F087FF8C489F
:101FF800FFF7BEFC00218A48FFF7FEFE0121884852
:10200800FFF72EFD6023FB6400233B6500237B65FF
:102018000023BB650023FB6500233B6600237B662A
:102028000023BB6607F14C031A4601217C4803F0E4
:10203800EFFF01217A48FFF7BBFC10217848FFF732
:102048000FFD07F14C031A461021754803F0E0FF15
:1020580010217348FFF7ACFC4FF480717048FFF70C
:10206800FFFC07F14C031A464FF480716C4803F0EB
:10207800CFFF4FF480716A48FFF79AFC4FF4805104
:102088006748FFF7EDFC07F14C031A464FF48051FF
:10209800634803F0BDFF4FF480516148FFF788FCA7
:1020A80070215F48FFF7BDFE00215D48FFF7CEFEB7
:1020B8005B48FFF7DEFE0023022204215848FFF7A1
:1020C800F8FE0023042204215548FFF7F2FE0023FE
:1020D800082204215248FFF7ECFE5148FFF730FF71
:1020E8004FF40063FB614FF480633B6200237B6223
:1020F8003C2387F8283000237B854FF40053FB628C
:1021080000233B6300237B634FF08073BB634FF076
:102118000073FB6300233B6400237B640023BB64E0
:1021280007F11C0319463E4803F0D2FF0220FFF7CF
:10213800D7FB0120FFF7D4FB4FF400537B60022349
:10214800BB600023FB6000233B6100237B61062307
:10215800BB613B1D1946334803F062FB4FF48043D3
:102168007B600223BB600023FB6000233B610023EC
:102178007B610623BB613B1D19462A4803F050FBCF
:102188004FF400437B600223BB600023FB60002305
:102198003B6100237B610423BB613B1D1946214839
:1021A80003F03EFB4FF480737B600223BB60002387
:1021B800FB6000233B6100237B610623BB613B1D61
:1021C80019464FF0904003F02BFB4FF400737B60EF
:1021D8000223BB600023FB6000233B6100237B617B
:1021E8000623BB613B1D19464FF0904003F018FBD6
:1021F8004FF480637B600223BB600023FB600023F5
:102208003B6100237B610623BB613B1D19464FF0F0
:10221800904003F005FB00BF8037BD4680BD00BF7E
:10222800002C01400004004880B586B000AF3B1D7B
:1022380000221A605A609A60DA601A610120FFF77A
:1022480067FBFFF7C3FA0346002200211846FFF791
:1022580013FB034619461C20FFF7E4FA1C20FFF77E
:10226800C3FA40F2FF33BB800023BB604FF0FF335B
:10227800FB6000233B613B1D19464FF0804003F093
:102288003DFE4FF08040FFF783FB00214FF0804078
:10229800FFF7B2FD00214FF08040FFF7C2FD4FF07D
:1022A8008040FFF7F6FD00BF1837BD4680BD00002F
:1022B80080B586B000AF3B1D00221A605A609A6054
:1022C800DA601A610220FFF723FBFFF77FFA034663
:1022D800002200211846FFF7CFFA034619461D20B1
:1022E800FFF7A0FA1D20FFF77FFA40F2DB53BB800F
:1022F8000023BB6042F21073FB6000233B613B1D6F
:1023080019460A4803F0FAFD0848FFF741FB002187
:102318000648FFF771FD00210448FFF782FD0348D6
:10232800FFF7B7FD00BF1837BD4680BD0004004069
:1023380080B58CB000AF07F11C0300221A605A6008
:102348009A60DA601A613B1D00221A605A609A602E
:10235800DA601A615A610420FFF7DAFA0220FFF7FF
:10236800BFFA40237B600223BB600023FB6000238D
:102378003B6100237B610223BB613B1D19464B482F
:1023880003F04EFA80237B600223BB600023FB60CE
:1023980000233B6100237B610223BB613B1D19467F
:1023A800424803F03DFA4FF400737B600223BB60A0
:1023B8000023FB6000233B6100237B610223BB6198
:1023C8003B1D1946394803F02BFAFFF7FFF903467E
:1023D800002200211846FFF74FFA034619461E202F
:1023E800FFF720FA1E20FFF7FFF90023BB83002325
:1023F8003B624FF6FF737B620023BB6207F11C034D
:1024080019462B4803F07AFD2948FFF7C1FA002145
:102418002748FFF706FD2648FFF73BFD4FF48032BB
:1024280001212348FFF772FB002201212048FFF712
:10243800CDFB002201211E48FFF728FC0A220121BA
:102448001B48FFF783FC4FF4803210211848FFF730
:102458005DFB002210211648FFF7B8FB002210216F
:102468001348FFF713FC0A2210211148FFF76EFCEE
:102478004FF480324FF480510D48FFF747FB00229C
:102488004FF480510A48FFF7A1FB00224FF4805116
:102498000748FFF7FBFB0A224FF480510448FFF777
:1024A80055FC00BF3037BD4680BD00BF0004004862
:1024B8000008004080B586B000AF3B1D00221A60BE
:1024C8005A609A60DA601A614FF40050FFF738FAE0
:1024D800FFF77CF90346002200211846FFF7CCF9E4
:1024E800034619462C20FFF79DF92C20FFF77CF9AD
:1024F8009623BB800023BB604FF47A73FB600023F4
:102508003B6100237B613B1D19460C4803F0F6FC38
:102518000A48FFF73DFA00210848FFF76DFC002143
:102528000648FFF77EFC00210448FFF78FFC0348AC
:10253800FFF7AFFC00BF1837BD4680BD003401402F
:1025480080B483B000AF7860094BD3F888207B68EB
:102558001B0CDB431A407B689BB205491343C1F847
:10256800883000BF0C37BD465DF8047B704700BF5C
:102578000010024080B485B000AF7860084BDA6C78
:1025880007497B681343CB64054BDA6C7B681340BF
:10259800FB60FB6800BF1437BD465DF8047B7047DD
:1025A8000010024080B485B000AF7860084B9A6D87
:1025B80007497B6813438B65054B9A6D7B6813400D
:1025C800FB60FB6800BF1437BD465DF8047B7047AD
:1025D8000010024080B483B000AF78607B681B684D
:1025E80043F001027B681A6000BF0C37BD465DF8F6
:1025F800047B704780B483B000AF78607B681B6849
:1026080023F000527B681A6000BF0C37BD465DF8A6
:10261800047B704780B489B000AF786039607B680C
:102628000833FB60FB6853E8003FBB60BB6823F0DE
:1026380060423B685B071343FB617B680833FA69B8
:10264800BA617B617969BA6941E800233B613B69FA
:10265800002BE4D100BF00BF2437BD465DF8047BE2
:10266800704780B489B000AF786039607B68083300
:10267800FB60FB6853E8003FBB60BB6823F0606207
:102688003B685B061343FB617B680833FA69BA61F0
:102698007B617969BA6941E800233B613B69002B9A
:1026A800E4D100BF00BF2437BD465DF8047B704706
:1026B80080B483B000AF78607B685B6823F4904295
:1026C8007B685A607B689B6823F02A027B689A6063
:1026D80000BF0C37BD465DF8047B704780B483B0FB
:1026E80000AF78607B68DB6903F40013B3F5001F63
:1026F80001D1012300E0002318460C37BD465DF8E0
:10270800047B704780B483B000AF78607B68DB6976
:1027180003F48003B3F5800F01D1012300E0002307
:1027280018460C37BD465DF8047B704780B58EB0FF
:1027380000AF07F1180320220021184604F070F9B1
:102748003B4600221A605A609A60DA601A615A6140
:102758004FF44010FFF7F4FE4FF48020FFF722FFFC
:102768000220FFF707FF4FF480633B6002237B6082
:102778000023BB600023FB6000233B6107237B61D0
:102788003B461946274803F04BF84FF400633B607B
:1027980002237B600023BB600023FB6000233B61B6
:1027A80007237B613B4619461E4803F039F800238E
:1027B800BB614FF4E133FB6100233B6200237B6282
:1027C8000023BB620C23FB6200233B6300237B6373
:1027D80007F118031946144804F074F80021124848
:1027E800FFF718FF00211048FFF73BFF0E48FFF7DF
:1027F80001FF0D48FFF75CFF0B48FFF7EBFE00BF3A
:102808000948FFF76BFF0346002BF9D00648FFF78E
:1028180079FF0346002BF3D000BF00BF3837BD4611
:1028280080BD00BF00040048004800400D488546B0
:102838000D480E490E4A002302E0D458C450043310
:10284800C4188C42F9D30B4A0B4C002301E01360E7
:102858000432A242FBD3FEF7A7FF04F0BDF8FEF74F
:10286800D9FDFEE700800020000000200C000020B9
:10287800D06A00080C000020F0010020FEE780B5B7
:1028880082B000AF0023FB71032001F08BFB0F2007
:1028980000F00EF80346002B02D00123FB7101E083
:1028A800FEF71CFFFB7918460837BD4680BD0000BF
:1028B80080B584B000AF78600023FB73164B1B68AB
:1028C800002B22D0154B1A68134B1B684FF47A71F2
:1028D800B1FBF3F3B2FBF3F3184601F096FB0346A2
:1028E800002B0FD17B680F2B09D8002279684FF095
:1028F800FF3001F062FB0A4A7B68136007E001239E
:10290800FB7304E00123FB7301E00123FB73FB7BF2
:1029180018461037BD4680BD080000200000002082
:102928000400002080B400AF054B1A68054B1B68F3
:102938001344034A136000BFBD465DF8047B70472B
:10294800EC0100200800002080B400AF034B1B6896
:102958001846BD465DF8047B704700BFEC010020B7
:1029680080B483B000AF7860064B1B6823F0020286
:1029780004497B6813430B6000BF0C37BD465DF804
:10298800047B70473000014080B400AF054B1B68E2
:10299800044A23F00103136000BFBD465DF8047BC1
:1029A800704700BF3000014080B483B000AF78604A
:1029B80039607B689B6823F47C123B681A437B6808
:1029C8009A6000BF0C37BD465DF8047B704780B441
:1029D80083B000AF786039607B689B6823F0E07251
:1029E8003B681A437B689A6000BF0C37BD465DF8A8
:1029F800047B704780B483B000AF78607B689B68C5
:102A080003F0E07318460C37BD465DF8047B704749
:102A180080B487B000AFF860B9607A603B60FB684B
:102A280060331A46BB689B0013447B617B691A6854
:102A3800084B13407A6802F0F8413A680A43134396
:102A480043F000427B691A6000BF1C37BD465DF841
:102A5800047B704700F0FF0380B485B000AF786056
:102A680039607B6860331A463B689B001344FB60FF
:102A7800FB681B6803F0F84318461437BD465DF839
:102A8800047B704780B487B000AFF860B9607A60A3
:102A9800FB6860331A46BB689B0013447B617B6903
:102AA8001B6823F000427B681A437B691A6000BFE9
:102AB8001C37BD465DF8047B704780B487B000AF13
:102AC800F860B9607A60FB6860331A46BB689B009F
:102AD80013447B617B691B6823F080727B681A430F
:102AE8007B691A6000BF1C37BD465DF8047B7047E0
:102AF80080B487B000AFF860B9607A60FB68603373
:102B08001A46BB689B0013447B617B691B6823F0F2
:102B180000727B681A437B691A6000BF1C37BD4688
:102B28005DF8047B704780B483B000AF786039608B
:102B38007B685B6923F000423B681A437B685A61F3
:102B480000BF0C37BD465DF8047B704780B483B086
:102B580000AF78607B68DB6803F44063002B01D129
:102B6800012300E0002318460C37BD465DF8047BBE
:102B7800704780B487B000AFF860B9607A60FB68CE
:102B880030331A46BB681B0A9B0003F00C0313443E
:102B98007B617B691A68BB6803F01F031F2101FA78
:102BA80003F3DB431A407B689B0E03F01F01BB68ED
:102BB80003F01F0301FA03F31A437B691A6000BF8D
:102BC8001C37BD465DF8047B704780B487B000AF02
:102BD800F860B9607A60FB6814331A46BB685B0E0C
:102BE8009B0003F0040313447B617B691A68BB688C
:102BF8001B0D03F01F03072101FA03F3DB431A40FF
:102C0800BB681B0D03F01F03796801FA03F31A432D
:102C18007B691A6000BF1C37BD465DF8047B7047AE
:102C280080B485B000AFF860B9607A607B680F4AFD
:102C380093420AD1FB68D3F8B020BB68C3F31203F0
:102C48001A43FB68C3F8B0200AE0FB68D3F8B02049
:102C5800BB68C3F31203DB431A40FB68C3F8B02018
:102C680000BF1437BD465DF8047B704700007F4005
:102C780080B483B000AF78607B689B6803F01F0363
:102C880018460C37BD465DF8047B704780B483B0A6
:102C980000AF78607B689B6823F0204323F03F03F4
:102CA8007A68936000BF0C37BD465DF8047B7047B7
:102CB80080B483B000AF78607B689B6803F00053F2
:102CC800B3F1005F01D1012300E0002318460C375F
:102CD800BD465DF8047B704780B483B000AF786070
:102CE8007B689B6823F0104323F03F0343F0805236
:102CF8007B689A6000BF0C37BD465DF8047B70475F
:102D080080B483B000AF78607B689B6803F0805321
:102D1800B3F1805F01D1012300E0002318460C378E
:102D2800BD465DF8047B704780B483B000AF78601F
:102D38007B689B6823F0004323F03F0343F00102C4
:102D48007B689A6000BF0C37BD465DF8047B70470E
:102D580080B483B000AF78607B689B6803F00103A0
:102D6800012B01D1012300E0002318460C37BD4692
:102D78005DF8047B704780B483B000AF78607B68EF
:102D88009B6823F0004323F03F0343F004027B6871
:102D98009A6000BF0C37BD465DF8047B704780B46D
:102DA80083B000AF78607B689B6803F00403042B52
:102DB80001D1012300E0002318460C37BD465DF819
:102DC800047B704780B483B000AF78607B689B68F1
:102DD80003F00803082B01D1012300E00023184663
:102DE8000C37BD465DF8047B7047000090B589B08C
:102DF80000AF78600023FB770023BB607B68002B63
:102E080001D1012377E17B685B69002B7B68DB6D6F
:102E1800002B09D17868FDF761FB7B6800221A66F0
:102E28007B68002283F858207B681B681846FFF7E8
:102E38003FFF0346002B04D07B681B681846FFF74A
:102E480025FF7B681B681846FFF75AFF0346002BCF
:102E580015D17B681B681846FFF73EFF9C4B1B6823
:102E68009B099C4AA2FB03239B0901335B00BB60BF
:102E780002E0BB68013BBB60BB68002BF9D17B68F3
:102E88001B681846FFF73CFF0346002B0DD17B68F3
:102E9800DB6D43F010027B68DA657B681B6E43F0DC
:102EA80001027B681A660123FB777B681B6818465A
:102EB800FFF775FF78617B68DB6D03F01003002B6B
:102EC80040F010817B69002B40F00C817B68DB6D42
:102ED80023F4817343F002027B68DA657B681B6820
:102EE8001846FFF735FF0346002B11D14FF0A040DD
:102EF800FFF72EFF04467848FFF72AFF03462343CF
:102F0800002B05D17B685B6819467448FFF74CFDB8
:102F18007B685B7F5A037B68DB6B1A437B68DB68E3
:102F28001A437B689B681A437B6893F824301B0418
:102F38001343BB617B6893F82430012B06D17B686F
:102F48009B6A013B5B04BA691343BB617B68DB6A1C
:102F5800002B09D07B68DB6A03F478727B681B6BF3
:102F68001343BA691343BB617B681B68DA685C4B1F
:102F780013407A681268B9690B43D3607B681B6891
:102F88001B6923F040617B685A6B7B681B680A43A6
:102F98001A617B681B681846FFF701FF38617B6878
:102FA8001B681846FFF70EFFF8603B69002B6DD1D0
:102FB800FB68002B6AD17B681B7F9A037B6893F8B8
:102FC80038305B001343BB617B681B68DB6823F404
:102FD800804323F002037A681268B9690B43D3600F
:102FE8007B681B69002B17D07B681B681A697B6894
:102FF8001B6842F480321A617B681B68D3F8C030C2
:1030080023F47F5323F03F037A6811697A681268C2
:103018000B43C2F8C03013E07B681B681A697B68F1
:103028001B6822F480321A617B681B68D3F8C030B1
:103038007A68126823F47F5323F03F03C2F8C03044
:103048007B6893F84030012B18D17B681B681B699B
:1030580023F4FF6323F004037A68516C7A68926C56
:1030680011437A68D26C11437A68126D0A431A4385
:103078007B681B6842F001021A6107E07B681B68E5
:103088001A697B681B6822F001021A617B685B6918
:10309800012B0CD17B681B681B6B23F00F017B682D
:1030A8001B6A5A1E7B681B680A431A6307E07B6821
:1030B8001B681A6B7B681B6822F00F021A637B6817
:1030C800DB6D23F0030343F001027B68DA6511E04E
:1030D80000000020632D3E05000100500003005051
:1030E8000740F0FF7B68DB6D43F010027B68DA6510
:1030F8000123FB77FB7F18462437BD4690BD00BFF0
:1031080080B586B000AFF860B9607A605148FFF7C3
:10311800AFFD3861FB681B681846FFF740FE0346A1
:10312800002B40F08F80FB6893F85830012B01D1B9
:1031380002238AE0FB68012283F858203B69002BB0
:1031480005D03B69052B02D03B69092B73D1F86880
:1031580000F098FC0346FB75FB7D002B66D1FB68ED
:10316800DB6D23F4706323F0010343F48072FB6882
:10317800DA65FB681B68384A934202D0FB681B6813
:1031880001E04FF0A043FA681268934202D03B690D
:10319800002B05D1FB68DB6D23F48012FB68DA6530
:1031A800FB68DB6D03F48053002B06D0FB681B6EB5
:1031B80023F00602FB681A6602E0FB6800221A6622
:1031C800FB685B6D254ADA62FB685B6D244A1A630B
:1031D800FB685B6D234A5A63FB681B681C221A60F4
:1031E800FB68002283F85820FB681B685A68FB6854
:1031F8001B6842F010025A60FB681B68DA68FB68BB
:103208001B6842F00102DA60FB68586DFB681B68B6
:1032180040331946BA687B6800F0ACFF0346FB757B
:10322800FB681B681846FFF7A6FD0DE0FB68002247
:1032380083F8582008E00123FB75FB68002283F817
:10324800582001E00223FB75FB7D18461837BD4660
:1032580080BD00BF0003005000010050513B000832
:10326800293C0008453C000880B483B000AF786072
:1032780000BF0C37BD465DF8047B704780B483B04F
:1032880000AF786000BF0C37BD465DF8047B70471F
:1032980080B483B000AF786000BF0C37BD465DF8DE
:1032A800047B704780B5B6B000AF78603960002302
:1032B80087F8D7300023FB607B6893F85830012BE0
:1032C80001D10223C8E37B68012283F858207B6878
:1032D8001B681846FFF763FD0346002B40F0AD83DB
:1032E8007B6818683B6859683B681B681A46FFF793
:1032F80040FC7B681B681846FFF751FDC7F8D000F3
:103308007B681B681846FFF75DFDC7F8CC00D7F847
:10331800D030002B40F0D981D7F8CC30002B40F0CA
:10332800D4813B689B68B3F1004F0FD17B68186864
:103338003B681B6800221946FFF747FC7B681B683F
:103348004FF000411846FFF7EEFB0EE07B68186867
:103358003B6819683B689B681A46FFF736FC7B6830
:103368001B6800211846FFF7DEFB3B685A697B683B
:103378001B68DB68DB0803F003035B0002FA03F356
:10338800C7F8C8303B681B69042B22D07B681868D3
:103398003B6819693B681A68D7F8C830FFF738FBEB
:1033A8007B6818683B6819693B689B691A46FFF790
:1033B80084FB7B6818683B6819693B681B7F012B95
:1033C80002D14FF0007300E000231A46FFF790FB8C
:1033D8007BE17B681B6800211846FFF73DFB03462D
:1033E800C3F31203002B0AD17B681B68002118461F
:1033F800FFF732FB03469B0E03F01F021EE07B68BB
:103408001B6800211846FFF727FB0346C7F8BC30A6
:10341800D7F8BC3093FAA3F3C7F8B830D7F8B83068
:10342800C7F8C030D7F8C030002B01D1202304E002
:10343800D7F8C030B3FA83F3DBB21A463B681B688F
:10344800C3F31203002B05D13B681B689B0E03F0E6
:103458001F0318E03B681B68C7F8B030D7F8B030D6
:1034680093FAA3F3C7F8AC30D7F8AC30C7F8B43048
:10347800D7F8B430002B01D1202304E0D7F8B430BA
:10348800B3FA83F3DBB29A4206D17B681B68002249
:1034980000211846FFF7F6FA7B681B6801211846D9
:1034A800FFF7DAFA0346C3F31203002B0AD17B684D
:1034B8001B6801211846FFF7CFFA03469B0E03F05D
:1034C8001F021EE07B681B6801211846FFF7C4FA3B
:1034D8000346C7F8A430D7F8A43093FAA3F3C7F883
:1034E800A030D7F8A030C7F8A830D7F8A830002BFC
:1034F80001D1202304E0D7F8A830B3FA83F3DBB274
:103508001A463B681B68C3F31203002B05D13B68BE
:103518001B689B0E03F01F0318E03B681B68C7F885
:103528009830D7F8983093FAA3F3C7F89430D7F8BF
:103538009430C7F89C30D7F89C30002B01D1202359
:1035480004E0D7F89C30B3FA83F3DBB29A4206D191
:103558007B681B68002201211846FFF793FA7B68F5
:103568001B6802211846FFF777FA0346C3F31203D4
:10357800002B0AD17B681B6802211846FFF76CFAFA
:1035880003469B0E03F01F021EE07B681B680221A6
:103598001846FFF761FA0346C7F88C30D7F88C3025
:1035A80093FAA3F3C7F88830D7F88830C7F8903073
:1035B800D7F89030002B01D1202304E0D7F89030C1
:1035C800B3FA83F3DBB21A463B681B68C3F31203F2
:1035D800002B05D13B681B689B0E03F01F0316E008
:1035E8003B681B68C7F88030D7F8803093FAA3F39C
:1035F800FB67FB6FC7F88430D7F88430002B01D104
:10360800202304E0D7F88430B3FA83F3DBB29A427C
:1036180006D17B681B68002202211846FFF732FAA0
:103628007B681B6803211846FFF716FA0346C3F3A5
:103638001203002B0AD17B681B6803211846FFF789
:103648000BFA03469B0E03F01F0217E07B681B680A
:1036580003211846FFF700FA03467B677B6F93FA4E
:10366800A3F33B673B6FBB67BB6F002B01D12023E4
:1036780003E0BB6FB3FA83F3DBB21A463B681B68FF
:10368800C3F31203002B05D13B681B689B0E03F0A4
:103698001F0311E03B681B68BB66BB6E93FAA3F37C
:1036A8007B667B6EFB66FB6E002B01D1202303E05B
:1036B800FB6EB3FA83F3DBB29A4206D17B681B68D0
:1036C800002203211846FFF7DDF97B681B681846BE
:1036D800FFF73EFB0346002B40F040817B681868EB
:1036E8003B6819683B68DB681A46FFF799FA3B683C
:1036F800DB688F4A934240F031817B6818683B68E9
:103708001B68C3F31203002B0BD13B681B689B0E8D
:10371800013303F01F03092B94BF01230023DBB2FD
:1037280019E03B681B68FB65FB6D93FAA3F3BB6567
:10373800BB6D3B663B6E002B01D1202303E03B6E43
:10374800B3FA83F3DBB2013303F01F03092B94BFF1
:1037580001230023DBB2002B79D03B681B68C3F33D
:103768001203002B07D13B681B689B0E01339B0695
:1037780003F0F84215E03B681B683B653B6D93FA24
:10378800A3F3FB64FB6C7B657B6D002B01D12023CD
:1037980003E07B6DB3FA83F3DBB201339B0603F0DE
:1037A800F8423B681B68C3F31203002B09D13B683E
:1037B8001B689B0E013303F01F03012101FA03F379
:1037C80017E03B681B687B647B6C93FAA3F33B644C
:1037D8003B6CBB64BB6C002B01D1202303E0BB6CAA
:1037E800B3FA83F3DBB2013303F01F03012101FABB
:1037F80003F342EA03013B681B68C3F31203002B7F
:103808000AD13B681B689B0E013303F01F02134665
:103818005B0013441B0518E03B681B68BB63BB6B6C
:1038280093FAA3F37B637B6BFB63FB6B002B01D1E8
:10383800202303E0FB6BB3FA83F3DBB2013303F01D
:103848001F0213465B0013441B050B4381E03B68D2
:103858001B68C3F31203002B07D13B681B689B0E40
:1038680001339B0603F0F84215E03B681B68FB62D6
:10387800FB6A93FAA3F3BB62BB6A3B633B6B002B07
:1038880001D1202303E03B6BB3FA83F3DBB20133AE
:103898009B0603F0F8423B681B68C3F31203002B36
:1038A80009D13B681B689B0E013303F01F030121FC
:1038B80001FA03F317E03B681B683B623B6A93FA23
:1038C800A3F3FB61FB697B627B6A002B01D1202398
:1038D80003E07B6AB3FA83F3DBB2013303F01F031F
:1038E800012101FA03F342EA03013B681B68C3F3B1
:1038F8001203002B0DD13B681B689B0E013303F0AC
:103908001F0213465B0013441E3B1B0543F0007364
:103918001EE03B681B687B617B6993FAA3F33B61FC
:103928003B69BB61BB69002B04D1202306E000BFC3
:1039380000007F40BB69B3FA83F3DBB2013303F0C5
:103948001F0213465B0013441E3B1B0543F0007324
:103958000B433A6892681946FFF737F93B681A68CB
:103968003F4B1340002B71D03E48FFF743F8C7F890
:10397800C4003B681B683C4A934204D03B681B6800
:103988003A4A934227D1D7F8C43003F40003002BF6
:1039980021D17B681B68B3F1A04F57D1D7F8C43049
:1039A80043F4000319462F48FFF711F8304B1B6802
:1039B8009B09304AA2FB03239B095A1C13465B0050
:1039C80013449B00FB6002E0FB68013BFB60FB6863
:1039D800002BF9D13AE03B681B68274A934213D180
:1039E800D7F8C43003F08073002B0DD17B681B68B7
:1039F800224A93422AD0D7F8C43043F0807319463C
:103A08001848FEF7E4FF21E03B681B681C4A934214
:103A18001CD1D7F8C43003F48003002B16D17B687F
:103A28001B68164A934211D0D7F8C43043F4800378
:103A380019460C48FEF7CBFF08E07B68DB6D43F0C6
:103A480020027B68DA65012387F8D7307B6800227B
:103A580083F8582097F8D7301846D837BD4680BD28
:103A68000000088000030050000021C31000C0902F
:103A780000000020632D3E05000052C700010050E1
:103A8800000084CB80B584B000AF78607B681B6889
:103A98001846FFF75DF90346002B4DD17B681B687C
:103AA8009A68284B1340002B0DD07B68DB6D43F0E0
:103AB80010027B68DA657B681B6E43F001027B6845
:103AC8001A66012339E07B681B681846FFF72CF952
:103AD800FEF73AFFF86028E07B681B681846FFF796
:103AE80037F90346002B04D17B681B681846FFF79B
:103AF8001BF9FEF729FF0246FB68D31A022B14D9DB
:103B08007B681B681B6803F00103012B0DD07B68E1
:103B1800DB6D43F010027B68DA657B681B6E43F04F
:103B280001027B681A66012307E07B681B681B6833
:103B380003F00103012BCFD1002318461037BD46EF
:103B480080BD00BF3F00008080B584B000AF7860C2
:103B58007B689B6AFB60FB68DB6D03F05003002BFE
:103B68004BD1FB68DB6D43F40072FB68DA65FB68D8
:103B78001B681B6803F00803002B21D0FB681B6837
:103B88001846FEF7E3FF0346002B32D0FB681B689C
:103B9800DB6803F40053002B2BD1FB68DB6D23F4A7
:103BA8008072FB68DA65FB68DB6D03F48053002BD9
:103BB8001FD1FB68DB6D43F00102FB68DA6518E092
:103BC800FB681B68DB6803F00203002B11D1FB685C
:103BD800DB6D23F48072FB68DA65FB68DB6D03F448
:103BE8008053002B05D1FB68DB6D43F00102FB68B5
:103BF800DA65F868FFF738FB0EE0FB68DB6D03F069
:103C08001003002B03D0F868FFF742FB04E0FB68C1
:103C18005B6D5B6B7868984700BF1037BD4680BD09
:103C280080B584B000AF78607B689B6AFB60F868F9
:103C3800FFF724FB00BF1037BD4680BD80B584B0B8
:103C480000AF78607B689B6AFB60FB68DB6D43F0C4
:103C58004002FB68DA65FB681B6E43F00402FB68F0
:103C68001A66F868FFF714FB00BF1037BD4680BD21
:103C780080B483B000AF78607B689B6803F0010371
:103C8800012B01D1012300E0002318460C37BD4663
:103C98005DF8047B704780B483B000AF78607B68C0
:103CA8009B6803F00403042B01D1012300E00023E7
:103CB80018460C37BD465DF8047B704790B5A1B037
:103CC80000AF78603960002387F87F307B6893F80D
:103CD8005830012B01D102238BE07B68012283F845
:103CE800582000237B660023BB667B681B68B3F102
:103CF800A04F02D1414BBB6001E00023BB60BB6811
:103D0800002B0BD17B68DB6D43F020027B68DA6502
:103D18007B68002283F8582001236AE0BB681846B4
:103D2800FFF7B9FFB8677B681B681846FFF7B3FF52
:103D38000346002B4CD1BB6F002B49D1304B7B671E
:103D48003B681B68002B28D07B6F9B6823F460427C
:103D58003B6859687B6893F838305B030B431A4318
:103D68007B6F9A604FF0A040FFF782FF044623481C
:103D7800FFF77EFF03462343002B33D17B6F9B68FD
:103D880023F4716323F00F033A6811683A68926864
:103D98000A431A437B6F9A6024E07B6F9B6823F485
:103DA80060427B6F9A604FF0A040FFF761FF0446C6
:103DB8001248FFF75DFF03462343002B12D17B6FA8
:103DC8009B6823F4716323F00F037A6F936009E013
:103DD8007B68DB6D43F020027B68DA65012387F896
:103DE8007F3000E000BF7B68002283F8582097F8F6
:103DF8007F3018468437BD4690BD00BF0001005093
:103E08000003005080B485B000AF78607B6803F091
:103E18000703FB600C4BDB68BB60BA684FF6FF0317
:103E28001340BB60FB681A02BB68134343F0BF63CF
:103E380043F40033BB60044ABB68D36000BF143747
:103E4800BD465DF8047B704700ED00E080B400AF2C
:103E5800044BDB681B0A03F007031846BD465DF8F0
:103E6800047B704700ED00E080B483B000AF0346E8
:103E7800FB7197F90730002B0BDBFB7903F01F026E
:103E8800074997F907305B09012000FA02F241F867
:103E9800232000BF0C37BD465DF8047B704700BF88
:103EA80000E100E080B483B000AF03463960FB71E5
:103EB80097F90730002B0ADB3B68DAB20C4997F90F
:103EC80007301201D2B20B4483F800230AE03B68A2
:103ED800DAB20849FB7903F00F03043B1201D2B2AE
:103EE8000B441A7600BF0C37BD465DF8047B70475B
:103EF80000E100E000ED00E080B489B000AFF860B8
:103F0800B9607A60FB6803F00703FB61FB69C3F1E2
:103F18000703042B28BF0423BB61FB690433062B6A
:103F280002D9FB69033B00E000237B614FF0FF32BD
:103F3800BB6902FA03F3DA43BB681A407B699A400B
:103F48004FF0FF317B6901FA03F3D9437B680B40DB
:103F5800134318462437BD465DF8047B70470000BC
:103F680080B582B000AF78607B68013BB3F1807F99
:103F780001D301230FE00A4A7B68013B53600F21FC
:103F88004FF0FF30FFF78EFF054B00229A60044B7D
:103F980007221A60002318460837BD4680BD00BFB7
:103FA80010E000E080B582B000AF78607868FFF775
:103FB80029FF00BF0837BD4680BD80B586B000AF79
:103FC8000346B9607A60FB73FFF740FF78617A684F
:103FD800B9687869FFF790FF024697F90F301146E4
:103FE8001846FFF75FFF00BF1837BD4680BD80B594
:103FF80082B000AF0346FB7197F907301846FFF708
:1040080033FF00BF0837BD4680BD80B582B000AF22
:1040180078607868FFF7A4FF034618460837BD465E
:1040280080BD000080B584B000AF78607B68002B4D
:1040380001D101238DE07B681B681A46474B9A42E1
:104048000FD87B681B681A46454B1344454AA2FBA8
:1040580003231B099A007B685A647B68424A1A64E6
:104068000EE07B681B681A46404B13443D4AA2FB8E
:1040780003231B099A007B685A647B683C4A1A64CC
:104088007B68022283F825207B681B681B68FB601D
:10409800FB6823F4FF4323F07003FB607B689A6896
:1040A8007B68DB681A437B681B691A437B685B691A
:1040B8001A437B689B691A437B68DB691A437B68F0
:1040C8001B6A1343FA681343FB607B681B68FA6832
:1040D8001A60786800F0B6F97B689B68B3F5804F82
:1040E80002D17B6800225A607B685A687B689B6CA7
:1040F800D2B21A607B68DB6C7A68126D5A607B6892
:104108005B68002B10D07B685B68042B0CD8786840
:1041180000F0D6F97B685B6D00221A607B689B6DA6
:104128007A68D26D5A6008E07B6800225A657B681D
:1041380000229A657B680022DA657B680022DA63D0
:104148007B68012283F825207B68002283F82420DD
:10415800002318461037BD4680BD00BF0704024043
:10416800F8FFFDBFCDCCCCCC00000240F8FBFDBF72
:104178000004024080B586B000AFF860B9607A608C
:104188003B600023FB75FB6893F82430012B01D1B9
:10419800022366E0FB68012283F82420FB6893F879
:1041A8002530DBB2012B55D1FB68022283F825208C
:1041B800FB680022DA63FB681B681A68FB681B68E7
:1041C80022F001021A603B687A68B968F86800F062
:1041D800FBF8FB681B6B002B08D0FB681B681A6890
:1041E800FB681B6842F00E021A600FE0FB681B6850
:1041F8001A68FB681B6822F004021A60FB681B68D7
:104208001A68FB681B6842F00A021A60FB689B6C1C
:104218001B6803F48033002B07D0FB689B6C1A687B
:10422800FB689B6C42F480721A60FB685B6D002B24
:1042380007D0FB685B6D1A68FB685B6D42F480729F
:104248001A60FB681B681A68FB681B6842F0010269
:104258001A6005E0FB68002283F824200223FB751E
:10426800FB7D18461837BD4680BD80B584B000AFC9
:1042780078607B681B6C1B68FB607B681B681B682D
:10428800BB607B685B6C03F01F0304229A40FB68E9
:104298001340002B26D0BB6803F00403002B21D069
:1042A8007B681B681B6803F02003002B07D17B6821
:1042B8001B681A687B681B6822F004021A607B6816
:1042C8005B6C03F01F027B681B6C042101FA02F28D
:1042D8005A607B681B6B002B71D07B681B6B7868FE
:1042E80098476CE07B685B6C03F01F0302229A40DE
:1042F800FB681340002B2ED0BB6803F00203002B91
:1043080029D07B681B681B6803F02003002B0BD1A6
:104318007B681B681A687B681B6822F00A021A60AF
:104328007B68012283F825207B685B6C03F01F0201
:104338007B681B6C022101FA02F25A607B6800223A
:1043480083F824207B68DB6A002B38D07B68DB6A23
:104358007868984733E07B685B6C03F01F0308229A
:104368009A40FB681340002B2AD0BB6803F008036F
:10437800002B25D07B681B681A687B681B6822F0B5
:104388000E021A607B685B6C03F01F027B681B6C73
:10439800012101FA02F25A607B680122DA637B6824
:1043A800012283F825207B68002283F824207B687B
:1043B8005B6B002B04D07B685B6B7868984700BF09
:1043C80000BF1037BD4680BD80B485B000AFF8602F
:1043D800B9607A603B60FB68DB6CFA68126D5A6002
:1043E800FB685B6D002B04D0FB689B6DFA68D26D8F
:1043F8005A60FB685B6C03F01F02FB681B6C0121B1
:1044080001FA02F25A60FB681B683A685A60FB6856
:104418009B68102B08D1FB681B687A689A60FB6858
:104428001B68BA68DA6007E0FB681B68BA689A60BC
:10443800FB681B687A68DA6000BF1437BD465DF810
:10444800047B704780B487B000AF78607B681B68D6
:104458001A46164B9A4202D8154B7B6101E0154B60
:104468007B617B693B617B681B68DBB2083B124A56
:10447800A2FB03231B09FB607B685B6C9B089A000B
:104488003B6913441A467B689A647B680B4ADA6472
:10449800FB6803F01F0301229A407B681A6500BF7E
:1044A8001C37BD465DF8047B704700BF0704024017
:1044B8000008024020080240CDCCCCCC8008024045
:1044C80080B485B000AF78607B685B68DBB2FB6066
:1044D800FA680B4B13449B001A467B685A657B6845
:1044E800084A9A65FB68013B03F01F0301229A40C2
:1044F8007B68DA6500BF1437BD465DF8047B7047FA
:104508003F8200104009024080B584B000AF786057
:104518007B68002B01D1012347E17B6893F85C306D
:10452800DBB2002B06D17B68002283F85D20786817
:10453800FCF7B0FB7B681B689A697B681B6822F0F4
:1045480010029A61FEF700FAF86012E0FEF7FCF933
:104558000246FB68D31A0A2B0BD97B681B6E43F003
:1045680001027B681A667B68032283F85C200123BA
:104578001BE17B681B689B6903F00803082BE5D0E7
:104588007B681B689A697B681B6842F001029A6124
:10459800FEF7DAF9F86012E0FEF7D6F90246FB6892
:1045A800D31A0A2B0BD97B681B6E43F001027B6878
:1045B8001A667B68032283F85C200123F5E07B6898
:1045C8001B689B6903F00103002BE5D07B681B681F
:1045D8009A697B681B6842F002029A617B681B68D3
:1045E800744A934203D1744A7B685B6813607B68A2
:1045F8001B7C012B08D17B681B689A697B681B6848
:1046080022F040029A6107E07B681B689A697B6820
:104618001B6842F040029A617B685B7C012B08D1E1
:104628007B681B689A697B681B6842F480429A61C0
:1046380007E07B681B689A697B681B6822F48042E4
:104648009A617B689B7C012B08D17B681B689A69FF
:104658007B681B6822F480529A6107E07B681B68BC
:104668009A697B681B6842F480529A617B681B6870
:104678009B6923F440717B689A687B681B680A43CE
:104688009A617B681B689A697B681B6822F0A402A0
:104698009A617B681B681A697B681B6822F01002A4
:1046A8001A617B68DB68012B08D17B681B689A69F3
:1046B8007B681B6842F004029A612CE07B68DB6827
:1046C800002B28D07B68DB68022B1CD07B681B681A
:1046D8009A697B681B6842F080029A617B681B6854
:1046E8001A697B681B6842F010021A617B68DB68F4
:1046F800032B10D17B681B689A697B681B6842F0A2
:1047080020029A6107E07B681B689A697B681B68CE
:1047180042F020029A617B689B69013B5A067B68DC
:10472800DB69013B1B021A437B681B6A013B42EAB7
:1047380003017B685B69013B1A047B681B680A43B9
:10474800DA617B689B68B3F5407F15D17B689B6A0B
:104758005A1E7B68DB6A013B1B021A437B681B6B92
:10476800013B1B0142EA03017B685B6A013B1A04B7
:104778007B681B680A43DA607B681B68D3F8C01043
:104788007B68DA6B7B681B680A43C3F8C0207868CB
:1047980000F0C2F97B6800229A657B6800221A66DD
:1047A8007B68012283F85C20002318461037BD4639
:1047B80080BD00BF006400400065004080B58AB03D
:1047C80000AF78607B681B681B6D03F4E0537B6265
:1047D8007B681B685B6D7A6A13407B627B681B6829
:1047E8001B6D03F007033B627B681B685B6D3A6ACD
:1047F80013403B627B681B681B6D03F03803FB6149
:104808007B681B685B6DFA691340FB617B681B68FA
:104818001B6D03F47103BB617B681B685B6DBA6930
:104828001340BB617B681B681B6D03F460237B61CD
:104838007B681B685B6D7A6913407B617B681B68CA
:104848001B6D03F04003002B0DD07B681B685B6D6C
:1048580003F04003002B06D07B681B6840221A65D2
:10486800786800F039F97B681B681B6D03F4807366
:10487800002B1BD07B681B685B6D03F48073002BD7
:1048880014D07B681B68D3F8D8303B617B681B6801
:10489800D3F8E0303A6913403B617B681B684FF4FA
:1048A80080721A653969786800F0F7F87B6A002B1E
:1048B80007D07B681B687A6A1A65796A786800F09D
:1048C800B6F83B6A002B07D07B681B683A6A1A6502
:1048D800396A786800F0B6F8FB69002B07D07B6866
:1048E8001B68FA691A65F969786800F0B6F87B6898
:1048F8001B681B6D03F40073002B0ED07B681B68CC
:104908005B6D03F40073002B07D07B681B684FF4C2
:1049180000721A65786800F0ABF87B681B681B6D3D
:1049280003F08003002B1AD07B681B685B6D03F0D3
:104938008003002B13D07B681B68D3F8D430FB604E
:104948007B681B68D3F8DC30FA681340FB607B682F
:104958001B6880221A65F968786800F093F87B680C
:104968001B681B6D03F40053002B0ED07B681B687B
:104978005B6D03F40053002B07D07B681B684FF472
:1049880000521A65786800F093F87B681B681B6D05
:1049980003F40043002B0ED07B681B685B6D03F4A7
:1049A8000043002B07D07B681B684FF400421A6550
:1049B800786800F087F87B681B681B6D03F48043F8
:1049C800002B11D07B681B685B6D03F48043002BC0
:1049D8000AD07B681B684FF480421A657B681B6E9F
:1049E80043F080027B681A667B69002B07D07B68DE
:1049F8001B687A691A657969786800F081F8BB697B
:104A0800002B09D07B681B68BA691A657B681A6E27
:104A1800BB691A437B681A667B681B6E002B02D041
:104A2800786800F063F800BF2837BD4680BD80B4C1
:104A380083B000AF7860396000BF0C37BD465DF8C1
:104A4800047B704780B483B000AF7860396000BFE2
:104A58000C37BD465DF8047B704780B483B000AF67
:104A68007860396000BF0C37BD465DF8047B70473D
:104A780080B483B000AF786000BF0C37BD465DF8E6
:104A8800047B704780B483B000AF7860396000BFA2
:104A98000C37BD465DF8047B704780B483B000AF27
:104AA8007860396000BF0C37BD465DF8047B7047FD
:104AB80080B483B000AF786000BF0C37BD465DF8A6
:104AC800047B704780B483B000AF786000BF0C37B8
:104AD800BD465DF8047B704780B483B000AF786052
:104AE80000BF0C37BD465DF8047B704780B483B0C7
:104AF80000AF786000BF0C37BD465DF8047B704797
:104B080080B483B000AF7860396000BF0C37BD4611
:104B18005DF8047B7047000080B485B000AF786012
:104B2800274BBB607B68BA681A647B681B68D3F83C
:104B3800803023F4F8117B685B6B1A047B681B6870
:104B48000A43C3F88020BB6803F170027B685A648B
:104B58007B681B68D3F8803023F070617B689B6B9F
:104B68001A067B681B680A43C3F88020BB6803F1F8
:104B7800B0027B689A64BB6803F5C4727B68DA6428
:104B8800BB6803F518727B681A65BB6803F51E726B
:104B98007B685A65BB68FB6005E0FB6800221A6009
:104BA800FB680433FB60BB6803F55473FA689A42E8
:104BB800F3D300BF00BF1437BD465DF8047B7047D0
:104BC80000A4004080B487B000AF7860396000234B
:104BD8007B615AE13B681A6801217B6901FA03F39A
:104BE8001340FB60FB68002B00F04C813B685B685E
:104BF80003F00303012B05D03B685B6803F0030354
:104C0800022B30D17B689B683B617B695B00032288
:104C180002FA03F3DB433A6913403B613B68DA6805
:104C28007B695B0002FA03F33A6913433B617B68D3
:104C38003A699A607B685B683B6101227B6902FA8A
:104C480003F3DB433A6913403B613B685B681B092C
:104C580003F001027B6902FA03F33A6913433B61EB
:104C68007B683A695A603B685B6803F00303032B6F
:104C780017D07B68DB683B617B695B00032202FA23
:104C880003F3DB433A6913403B613B689A687B69ED
:104C98005B0002FA03F33A6913433B617B683A69A4
:104CA800DA603B685B6803F00303022B23D17B695E
:104CB800DA087B68083253F822303B617B6903F0DD
:104CC80007039B000F2202FA03F3DB433A69134000
:104CD8003B613B681A697B6903F007039B0002FA92
:104CE80003F33A6913433B617B69DA087B6808324E
:104CF800396943F822107B681B683B617B695B005C
:104D0800032202FA03F3DB433A6913403B613B6831
:104D18005B6803F003027B695B0002FA03F33A69FC
:104D280013433B617B683A691A603B685B6803F42C
:104D38004033002B00F0A6805B4B1B6E5A4A43F0B1
:104D480001031366584B1B6E03F00103BB60BB687D
:104D5800564A7B699B08023352F823303B617B69D2
:104D680003F003039B000F2202FA03F3DB433A69C3
:104D780013403B617B68B3F1904F1FD07B684C4A6E
:104D8800934219D07B684B4A934213D07B684A4AB6
:104D980093420DD07B68494A934207D07B68484AC2
:104DA800934201D105230AE0062308E0042306E024
:104DB800032304E0022302E0012300E000237A69D0
:104DC80002F00302920093403A6913433B6137496A
:104DD8007B699B0802333A6941F82320394B9B6869
:104DE8003B61FB68DB433A6913403B613B685B68A6
:104DF80003F48013002B03D03A69FB6813433B612B
:104E0800304A3B6993602F4BDB683B61FB68DB43AF
:104E18003A6913403B613B685B6803F40013002B5D
:104E280003D03A69FB6813433B61264A3B69D36068
:104E3800244B5B683B61FB68DB433A6913403B6189
:104E48003B685B6803F40033002B03D03A69FB68C6
:104E580013433B611B4A3B6953601A4B1B683B6118
:104E6800FB68DB433A6913403B613B685B6803F4CA
:104E78008033002B03D03A69FB6813433B61114A26
:104E88003B6913607B6901337B613B681A687B6906
:104E980022FA03F3002B7FF49DAE00BF00BF1C373E
:104EA800BD465DF8047B70470010024000000140D9
:104EB8000004004800080048000C004800100048A2
:104EC800001400480004014080B400AF054B9B6803
:104ED800044A43F48043936000BFBD465DF8047BF9
:104EE800704700BF0070004080B400AF034B1B68E0
:104EF8001846BD465DF8047B704700BF00000020DF
:104F080080B500AFFFF7F0FF0246064B9B68DB0A4F
:104F180003F007030449CB5C03F01F0322FA03F3F1
:104F2800184680BD00100240606A000880B483B053
:104F380000AF78607B681B6803F00043B3F1004F53
:104F480001D1012300E0002318460C37BD465DF867
:104F5800047B704780B584B000AF78603960002367
:104F6800FB737868FFF7E2FF0346002B15D17B68D7
:104F78001A680D4B13403A6811683A685268114331
:104F88003A68926811433A68D26811433A681269DC
:104F98000A431A437B681A6001E00123FB73FB7B19
:104FA80018461037BD4680BD0F7E00FF80B483B021
:104FB80000AF786039607B681A683B6803F01003BB
:104FC800012101FA03F31A403B6803F010030121A1
:104FD80001FA03F39A4201D1012300E000231846A5
:104FE8000C37BD465DF8047B704780B586B000AFCE
:104FF800F860B9607A600023FB75B968F868FFF754
:10500800D5FF0346002B40F090807B689B68002BFF
:105018005CD07B689B68C02B3CD1FB681A68BB6876
:1050280003F01003C02101FA03F3DB431A407B6845
:105038009968BB6803F0100301FA03F31A43FB688D
:105048001A60FB681A6EBB6803F0100340F60F7114
:1050580001FA03F3DB431A407B681B6899087B68F5
:105068005B689B081B021943BB6803F0100301FA35
:1050780003F31A43FB681A66FB6858331A46BB6881
:10508800DB099B0003F0040313441A467B68DB68C2
:1050980013602FE0FB681A68BB6803F0100340F642
:1050A800FC7101FA03F3DB431A407B6819687B68DB
:1050B8009B6819437B68DB681943BB6803F01003DE
:1050C80001FA03F31A43FB681A6013E0FB681A68D5
:1050D800BB6803F01003FC2101FA03F3DB431A4019
:1050E8007B681968BB6803F0100301FA03F31A43DD
:1050F800FB681A60FB68DA6BBB6803F010030721D2
:1051080001FA03F3DB431A407B6819697B685B6922
:1051180019437B689B691943BB6803F0100301FAC4
:1051280003F31A43FB68DA6301E00123FB75FB7D97
:1051380018461837BD4680BD80B483B000AF78608C
:10514800054B1A6804497B6813430B6000BF0C3792
:10515800BD465DF8047B70470004014080B483B00D
:1051680000AF7860054B1A6A04497B6813430B62E9
:1051780000BF0C37BD465DF8047B70470004014052
:1051880080B483B000AF7860064B1A687B68DB4355
:10519800044913400B6000BF0C37BD465DF8047B23
:1051A800704700BF0004014080B483B000AF78604E
:1051B800064B1A6A7B68DB43044913400B6200BF45
:1051C8000C37BD465DF8047B704700BF0004014002
:1051D80080B483B000AF7860054B5A6804497B6897
:1051E80013434B6000BF0C37BD465DF8047B704726
:1051F8000004014080B483B000AF7860054B5A6A60
:1052080004497B6813434B6200BF0C37BD465DF809
:10521800047B70470004014080B483B000AF78601D
:10522800064B5A687B68DB43044913404B6000BF58
:105238000C37BD465DF8047B704700BF0004014091
:1052480080B483B000AF7860064B5A6A7B68DB4352
:10525800044913404B6200BF0C37BD465DF8047B20
:10526800704700BF0004014080B483B000AF78608D
:10527800054B9A6804497B6813438B6000BF0C3761
:10528800BD465DF8047B70470004014080B483B0DC
:1052980000AF7860054B9A6A04497B6813438B62B8
:1052A80000BF0C37BD465DF8047B70470004014021
:1052B80080B483B000AF7860064B9A687B68DB43A4
:1052C800044913408B6000BF0C37BD465DF8047B72
:1052D800704700BF0004014080B483B000AF78601D
:1052E800064B9A6A7B68DB43044913408B6200BF14
:1052F8000C37BD465DF8047B704700BF00040140D1
:1053080080B483B000AF7860054BDA6804497B68E5
:105318001343CB6000BF0C37BD465DF8047B704774
:105328000004014080B483B000AF7860054BDA6AAE
:1053380004497B681343CB6200BF0C37BD465DF858
:10534800047B70470004014080B483B000AF7860EC
:10535800064BDA687B68DB4304491340CB6000BF27
:105368000C37BD465DF8047B704700BF0004014060
:1053780080B483B000AF7860064BDA6A7B68DB43A1
:1053880004491340CB6200BF0C37BD465DF8047B6F
:10539800704700BF0004014080B584B000AF78605A
:1053A8000023FB607B681B7A002B00F0D3807B68AE
:1053B8001B68002B63D07B685B7A022B1CD0022B06
:1053C80025DC002B02D0012B0BD020E07B681B686A
:1053D8001846FFF721FF7B681B681846FFF7ACFEED
:1053E80018E07B681B681846FFF7CAFE7B681B68D5
:1053F8001846FFF7EDFE0DE07B681B681846FFF7BF
:105408009BFE7B681B681846FFF7E2FE02E001235B
:10541800FB6000BF7B689B7A002B30D07B689B7A4F
:10542800032B1CD0032B25DC012B02D0022B0BD025
:1054380020E07B681B681846FFF786FF7B681B68BF
:105448001846FFF711FF1BE07B681B681846FFF73B
:105458002FFF7B681B681846FFF752FF10E07B6838
:105468001B681846FFF700FF7B681B681846FFF7A4
:1054780047FF05E0FB6843F00203FB6000E000BF64
:105488007B685B68002B7AD07B685B7A022B1CD028
:10549800022B25DC002B02D0012B0BD020E07B68EF
:1054A8005B681846FFF7CCFE7B685B681846FFF719
:1054B80055FE1AE07B685B681846FFF775FE7B6847
:1054C8005B681846FFF796FE0FE07B685B68184636
:1054D800FFF744FE7B685B681846FFF78BFE04E025
:1054E800FB6843F00403FB6000BF7B689B7A002BDA
:1054F80045D07B689B7A032B1CD0032B25DC012B22
:1055080002D0022B0BD020E07B685B681846FFF7BF
:105518002FFF7B685B681846FFF7B8FE30E07B68B2
:105528005B681846FFF7D8FE7B685B681846FFF78C
:10553800F9FE25E07B685B681846FFF7A7FE7B68E5
:105548005B681846FFF7EEFE1AE0FB6843F00503B8
:10555800FB6015E07B681B681846FFF711FE7B6847
:105568001B681846FFF758FE7B685B681846FFF70C
:105578001BFE7B685B681846FFF762FE00E000BF11
:10558800FB6818461037BD4680BD80B48BB000AFAD
:10559800F860B9607A60FB681A68BB687B617B69F0
:1055A80093FAA3F33B613B69BB61BB69002B01D153
:1055B800202303E0BB69B3FA83F3DBB25B0003216A
:1055C80001FA03F3DB431A40BB683B623B6A93FA78
:1055D800A3F3FB61FB697B627B6A002B01D120236B
:1055E80003E07B6AB3FA83F3DBB25B00796801FA04
:1055F80003F31A43FB681A6000BF2C37BD465DF8F9
:10560800047B704780B485B000AFF860B9607A60F9
:10561800FB685A68BB68DB431A40BB68796801FBC2
:1056280003F31A43FB685A6000BF1437BD465DF8A0
:10563800047B704780B48BB000AFF860B9607A60C3
:10564800FB689A68BB687B617B6993FAA3F33B614B
:105658003B69BB61BB69002B01D1202303E0BB6917
:10566800B3FA83F3DBB25B00032101FA03F3DB43F4
:105678001A40BB683B623B6A93FAA3F3FB61FB6980
:105688007B627B6A002B01D1202303E07B6AB3FA9B
:1056980083F3DBB25B00796801FA03F31A43FB6812
:1056A8009A6000BF2C37BD465DF8047B704780B414
:1056B8008BB000AFF860B9607A60FB68DA68BB68E5
:1056C8007B617B6993FAA3F33B613B69BB61BB696F
:1056D800002B01D1202303E0BB69B3FA83F3DBB2CB
:1056E8005B00032101FA03F3DB431A40BB683B620A
:1056F8003B6A93FAA3F3FB61FB697B627B6A002B2D
:1057080001D1202303E07B6AB3FA83F3DBB25B00A9
:10571800796801FA03F31A43FB68DA6000BF2C3793
:10572800BD465DF8047B704780B48BB000AFF8606D
:10573800B9607A60FB681A6ABB687B617B6993FA17
:10574800A3F33B613B69BB61BB69002B01D12023FB
:1057580003E0BB69B3FA83F3DBB29B000F2101FAC4
:1057680003F3DB431A40BB683B623B6A93FAA3F33B
:10577800FB61FB697B627B6A002B01D1202303E07C
:105788007B6AB3FA83F3DBB29B00796801FA03F30F
:105798001A43FB681A6200BF2C37BD465DF8047BCC
:1057A800704780B48BB000AFF860B9607A60FB686E
:1057B8005A6ABB681B0A7B617B6993FAA3F33B6156
:1057C8003B69BB61BB69002B01D1202303E0BB69A6
:1057D800B3FA83F3DBB29B000F2101FA03F3DB4337
:1057E8001A40BB681B0A3B623B6A93FAA3F3FB614E
:1057F800FB697B627B6A002B01D1202303E07B6A73
:10580800B3FA83F3DBB29B00796801FA03F31A4316
:10581800FB685A6200BF2C37BD465DF8047B7047B1
:1058280080B588B000AF786039603B681B683B6121
:105838003B6993FAA3F3FB60FB687B617B69002BF0
:1058480001D1202303E07B69B3FA83F3DBB2FB6168
:1058580048E03B681A680121FB6901FA03F3134029
:10586800BB61BB69002B3AD03B685B68012B03D056
:105878003B685B68022B0ED13B689B681A46B96986
:105888007868FFF7D7FE3B6819683B68DB681A46FB
:105898007868FFF7B7FE3B681B691A46B9697868EC
:1058A800FFF705FF3B685B68022B11D1BB69FF2B33
:1058B80007D83B685B691A46B9697868FFF734FF0F
:1058C80006E03B685B691A46B9697868FFF769FFC3
:1058D8003B685B681A46B9697868FFF756FEFB694A
:1058E8000133FB613B681A68FB6922FA03F3002B5A
:1058F800AFD1002318462037BD4680BD80B400AF25
:10590800074B1B6803F48063B3F5806F01D1012353
:1059180000E000231846BD465DF8047B704700BFD1
:105928000010024080B400AF074BD3F8903003F06A
:105938000203022B01D1012300E000231846BD46D3
:105948005DF8047B704700BF0010024080B400AFD0
:10595800044B9B6803F00C031846BD465DF8047BB6
:10596800704700BF0010024080B400AF044B9B6832
:1059780003F0F0031846BD465DF8047B704700BF8E
:105988000010024080B400AF044B9B6803F4E0634E
:105998001846BD465DF8047B704700BF0010024002
:1059A80080B400AF044B9B6803F460531846BD46AF
:1059B8005DF8047B704700BF0010024080B483B0DC
:1059C80000AF7860064BD3F888207B681A407B6864
:1059D8001B04134318460C37BD465DF8047B70471B
:1059E8000010024080B483B000AF7860064BD3F853
:1059F80088207B681A407B681B04134318460C37C1
:105A0800BD465DF8047B70470010024080B400AFCB
:105A1800044BDB6803F003031846BD465DF8047BBE
:105A2800704700BF0010024080B400AF044BDB6831
:105A38001B0A03F07F031846BD465DF8047B7047D8
:105A48000010024080B400AF044BDB6803F0C06371
:105A58001846BD465DF8047B704700BF0010024041
:105A680080B400AF044BDB6803F0F0031846BD4672
:105A78005DF8047B704700BF0010024080B584B019
:105A880000AF78600023FB607B68032B32D1786815
:105A9800FFF794FF0346B3F1031F16D0B3F1031FBA
:105AA8001CD8524A934203D0514A934204D015E07D
:105AB80000F0F6F8F86094E0FFF720FF0346002BAB
:105AC80000F082804B4BFB607EE0FFF72BFF034624
